:040000006F00F02C71
:1000040000000000000000006F0010296F00F028BD
:1000140000000000000000000000000000000000DC
:1000240000000000000000000000000000000000CC
:100034006F00D026000000006F0070260000000052
:100044006F0010266F00F0256F00D0256F00B025DB
:100054006F0090256F0070256F0050256F003025CC
:100064006F0010256F00F0246F00D0246F00305F04
:100074006F0090246F0070246F0050246F003024B0
:100084006F0010246F00F0236F00D0236F00B023A3
:100094006F0090230000000000000000000000003A
:1000A400000000000000000000000000000000004C
:0C00B40000000000000000000000000040
:1000C0003D432A876373C3029377F700BDEFADE525
:1000D000937606FF3D8ABA960CC34CC30CC74CC737
:1000E0004107E36BD7FE11E28280B306C3408A0664
:1000F0009702000096966780A6002307B700A30624
:10010000B7002306B700A305B7002305B700A30473
:10011000B7002304B700A303B7002303B700A3026B
:10012000B7002302B700A301B7002301B700A30063
:10013000B7002300B700828093F5F50F93968500F2
:10014000D58D93960501D58D61B7939627009702BB
:10015000000096968682E78086FA9680C1171D8FEA
:100160003E96E374C3F8A5B7557186C79545A2C5F9
:10017000A6C3CAC14EDF52DD56DB5AD95ED762D55F
:1001800066D36AD16ECF13050020130101813714A5
:100190000040EF10B01E7C44B7E4B805138504801E
:1001A00093E707207CC4EF10D00D13850480EF1077
:1001B000F0591305401FEF10305E7C549545130530
:1001C000002093E707207CD4EF10902C7C549545B9
:1001D0001305000293E707027CD4EF10702B7C54C8
:1001E00095451305000493E707047CD4EF10502ACB
:1001F00081454165EF109018814513050008EF1007
:10020000302981450545EF10B0288145370580002C
:10021000EF10D016814537050200EF1030168145EA
:100220000945EF10F02681451145EF1070268145F4
:1002300037051000EF10901481452145EF1050252F
:1002400081454145EF10D0247C44370708009D4587
:10025000D98F7CC437050800EF105012814537054F
:100260000400EF10B011EF30A0469384C18088C025
:100270005C4108411384C18082979C408145D84BE2
:10028000884302979C40B7050001FD15984F8843AD
:1002900002979C409853884302979C408545D847D5
:1002A0008843138901819384018102971305800794
:1002B000EF3030512320A9005C4908418297832701
:1002C0000900984B88430297832709008945D8473E
:1002D00088430297832709003776000013060661DA
:1002E000D85B88438545029783C7818013898180C5
:1002F0006382076E1C40B77500009385C561F8578F
:10030000884302971305803EEF1010498347090088
:1003100089CB1C40B775000093854563F857884327
:100320000297EF10C06D938941815C4123A0A90021
:100330000841138A9180829783A709002A8B9847E6
:1003400088430297630A056A83A70900984F884388
:10035000029783470900AA8A9DCB03A709001C4086
:10036000B775000014438843F85794425A86938522
:10037000056402978347090099CB1C40B7750000BC
:1003800013D6BA00F85788439385C565029781470D
:1003900063140B00B33750012300FA0083470900B0
:1003A00089CB1C40B77500009385056CF8578843CE
:1003B000029783470A00638007268347090089CB99
:1003C0001C40B775000093850568F857884302976D
:1003D000B775000005469385056313858183EF405B
:1003E000F0410567130707861410FD773697BA9713
:1003F0003EC423A4A77A2A8A8347090063110566AD
:1004000089CB1C40B775000093850569F857884370
:100410000297056C181093070C86BA97FD7A338BF8
:10042000570113068022814513050B7B51391810A3
:1004300093070C86BA9793890A7BBE99B77500001B
:1004400029469385056A4E85EF405040B7750000F8
:100450009385C56A4E85EF500033B77500009385CC
:10046000456C4E85EF50203237760000B77500009E
:100470001306466E9385C56E4E85EF50C030B77536
:100480000000938545704E85EF50E02F37E6B805A4
:10049000B775000013060680938545714E85EF50B1
:1004A000802EB77BDC02B775000013860BC09385E6
:1004B00045724E85EF50202DB775000013860BC096
:1004C000938545734E85EF50002C37366E01B77516
:1004D000000013060660938545744E85EF50A02AF0
:1004E0004E85EF50002883470900D5C71C40B775DB
:1004F000000093854575F8578843ED7B938ACA7A47
:10050000029713060040814513050148553E130626
:1005100080228145A80C6D36B77500002946938569
:10052000C575A80CEF40903293070C861810BA9747
:10053000DA89938B5BA5BE9A377B0000856718101C
:100540009387E785BA9713060040D686930501483E
:10055000A80C2390470123107149EF40506B23A44E
:10056000A97AA80CEF50001303A6897A6303064A00
:100570001C40B775000093858576F857884302972D
:10058000A80CEF50001E1C40B77500009385056C49
:10059000F8578843029713068022814513050148C6
:1005A0000536B77A0000054693858A77130501481A
:1005B000EF40D0292AD4FD79631C054685671810C1
:1005C00093870786BA979386897ABE961146938554
:1005D000818113050148EF40F04883470900938962
:1005E000818199CB1C4003D60900B7750000F857EC
:1005F000884393854578029713050148EF506016AC
:100600008347090085C71C40B77500009385056CBA
:10061000F857884302978347090089CB1C40B77578
:1006200000009385057BF85788430297AD2BB77779
:10063000000003AA875F377B0000B779000052856E
:10064000EF00806A0329CB5F054C814D4A85EF009E
:10065000C0711305803EEF1030141C408145014DE0
:10066000D84B8843814C814B02971C40B705000151
:10067000FD15984F8843814A02971C409853884340
:1006800002979C40984B88430297814513050020B0
:10069000EF1000609C40377800009306087C83A828
:1006A0000703884305470146914582989C409386FD
:1006B000897C1307800283A8070388430946914574
:1006C00082989C40B77600009386067D985B8843AD
:1006D0000946930540050297B777000083A7076096
:1006E000377800004EC83ECAB777000083A747603E
:1006F00002C442C63ECCB777000083A78760B71913
:1007000000403ECE63090C02130501482310014846
:10071000EF0020722A8605C1835501489307F00E29
:10072000E115C205C18163E6B7001C40985B8843B0
:100730000297EF00407283A74906858B9DEB938754
:10074000A18103C7070015E70547A545130500204C
:100750002380E700EF10C0531C40630E0C30D847D5
:1007600088438145014C02971C408145984B884342
:10077000029783A74906858B99CF9387A18183C66A
:10078000070005476399E600814513050020238093
:100790000700EF10E04F83A749041397F700634564
:1007A000070063930A00854A83A7490693F7070861
:1007B00099E3638D0B2C85476390FA02DE8A9C4097
:1007C000B77600009386867D985B88430146930543
:1007D0004006D68B0297894A8547639EFB009C4062
:1007E000B77600009386C67D985B884301469305E3
:1007F00040060297894B83A749041397F70063517A
:1008000007028947639EFA009C40B77600009386F2
:10081000067E985B88430146930540060297814A0D
:1008200083A7490693F7070885C38947639EFB00A2
:100830009C40B77600009386067E985B884301460D
:10084000930540060297814B83A74906898B91E364
:10085000854C83A749041397B70063430700054DF0
:1008600083A74906918B91E3854D83A74906A18B08
:1008700099E385473EC483A74906898BA1C7638353
:100880000C048325CB5F4A85EF50801FD2452A890F
:10089000EF5090066353A00052494A85F9214A85DA
:1008A00083AC0400EF50F077B24683A70C03131714
:1008B000050103A50C0041879386067C01469145FE
:1008C0008297814C83A749041397B700635A0704A2
:1008D00063080D048325CB5F4A85EF50103CB77742
:1008E000000083A5C75F2A893E8DEF5050096354ED
:1008F00005000329CD5F4A858D294A8503AD040093
:10090000EF503072B24683270D03131705010325FC
:100910000D0041879386067C014691458297014DE3
:1009200083A74906918BB9C763860D04D28552858A
:10093000EF500015E2452A8AEF50007C6353A00077
:10094000624A528555260325CB5FD28583AD0400CC
:10095000EF50A049EF50F06CC24683A70D03131768
:10096000050103A50D0041879386867C09469145C4
:100970008297814D83A74906A18BE38507D8A247BB
:10098000E38207D8B777000083A5C7605285EF5090
:10099000D007F2452A8AEF50807E63530500724AE1
:1009A000528599269C400325CB5FD2853EC4EF50EB
:1009B000C043EF501067A247C2461317050103A8B2
:1009C0000703884341879386867C094691450298B0
:1009D00002C40DBB1C4003AA070083A987055D283C
:1009E000AA87130700029306800913068007930560
:1009F000000A5285829939B283470900E38B079A2E
:100A00001C40B77500009385C566F8578843029768
:100A100071B29377FA0399E71C4093054B77F85727
:100A200088430297050A93070040E319FAB089BE8C
:100A300093858A77294613050148EF402061856731
:100A40001810938707869386897ABA97BE961146BF
:100A50009385818113050148EF40701B71BEE387C8
:100A600007BC1C402A86B7750000F8578843938559
:100A7000C579029771B6984B88438545054C029716
:100A80001C408545D84788430297E5B18547E398E0
:100A9000FAD435B31D651305457E828001A001A0FF
:100AA00001A001A001A001A001A001A001A001A03E
:100AB00001A001A001A001A001A001A001A001A02E
:100AC00001A001A001A001A001A001A001A0970127
:100AD0000020938121D9173100201301A1521785DD
:100AE00000001305652F97F5FF1F9385A551138609
:100AF000818063FAC5008322050023A055001105FB
:100B00009105E3EAC5FE138581809385C1DE637795
:100B1000B500232005001105E36DB5FE17F5012092
:100B20001305454E97F501209385C54D6377B500B4
:100B3000232005001105E36DB5FE9302800873A024
:100B4000023097F2FFFF9382224C93E212007390DF
:100B5000523097F2FFFF93826261739012347300F8
:100B60002030411122C426C206C62A84EF505063A9
:100B7000B7040020B7E7B80523A0A4069387078031
:100B80003775DC02B3D78702130505C0372700404D
:100B9000B24092443355850222442326F74023284D
:100BA000A74041018280371700407C574111A16660
:100BB000D58F06C622C47CD79D452165EF10400D18
:100BC00081450145EF10E03F37356E0113050560A3
:100BD000493F13054006EF10203CA167371602205D
:100BE000938747A40147130606A09305004003D549
:100BF000070093161700B2962390A60005078907F1
:100C0000E317B7FE37E400408347040093E727016A
:100C10002300F4008347140093F7970FA300F40018
:100C2000930700282313F400930700202312F400F5
:100C3000B7070220938707001CC4938707505CC442
:100C40008347240093E7F7012301F400B929854580
:100C50003545BD2181453545A52113054006EF10D9
:100C6000A033B1450545A929D145094591299305E9
:100C7000F03F0D45B1219305F04F114591219305AA
:100C8000F07F15453529E54519451D299305904106
:100C900025453D21814531452521A16579450D2118
:100CA000A5659385C511130500021929A1451305F2
:100CB0005003392113054006EF10002EB7E700E07E
:100CC0003707000823A0E7108347140093E71700B5
:100CD000A300F4008347040093E717002300F40007
:100CE000B24022444101828041119305000022C498
:100CF00006C626C22A84EF50804863550500B70710
:100D000000803D8C930500002285EF50203909E5D5
:100D1000B777000003A4C75FB7070020B7840000BF
:100D200083A5042503A50706EF50200CB787000014
:100D3000AA8503A54725EF50400B83A50425EF5056
:100D4000C00AAA852285EF50400AEF50902DC16756
:100D50006344F5001385F7FF2244B2409244931593
:100D60000501C18125454101A1AE41119305000056
:100D700022C426C206C62A84EF506040B784000011
:100D8000634C0502B787000083A547242285EF50F6
:100D9000003F6348A00283A584242285EF50E046EB
:100DA000EF50502E93150501C1812244B240924468
:100DB00013055003410129A6B777000003A4C75FBC
:100DC000D9BF83A484242285A685EF50403B63438A
:100DD000A002B777000083A5C7602285EF50E042EC
:100DE000A685EF508042EF50F0294205418193657E
:100DF000050465BFB787000083A5C7242285EF508F
:100E0000C040B777000083A5C75FEF500069A68593
:100E1000EF50A03FEF50102793150501C1812165C8
:100E2000A205130505F0E98DC205C18193E5F5071B
:100E3000ADBF9387C18183D607002D671307A7AA8B
:100E40006309D70083D707002310F500138581A617
:100E5000828001458280ED779387A7AA239EF18047
:100E6000828037E7004083470701898BDDC38947CC
:100E70002308F7009387E18183D70700B706022094
:100E800093880600858B1387E1819388085099E346
:100E9000938806009387C18103D60700AD679387C7
:100EA000A7AA1388C181639FC70483570700858B56
:100EB000B1CB371502208146795E130505A09385D5
:100EC00081A613030014B387C6039387F727C207CD
:100ED000C1838607C69783D7070093F7F73F860736
:100EE000AA9703D6070093971600AE974206418251
:100EF0002390C7008506E39866FC83570700858327
:100F00002310F800835707008507C207C183231009
:100F1000F70037E7004083470701918B81C791476E
:100F20002308F70037E7004083470701858B91C707
:100F300085472308F700239F018037E70040834758
:100F40000701C18B81C7C1472308F70037E700407D
:100F500083470701A18B81C7A1472308F7007300CE
:100F60002030411122C4371400403C4406C61545C8
:100F700093E707083CC43C4493E707103CC4EF00E8
:100F8000107F7C44B240154593E707087CC4224497
:100F900041016F00D07D411122C4371400407C44D0
:100FA00006C6154593E707087CC43C4493E7071041
:100FB0003CC4EF00D07B3C44B240154593E70708A2
:100FC0003CC4224441016F00907AB7170040F847B3
:100FD000411122C426C206C613670710F8C7B847D6
:100FE00015451304F00F13670708B8C7B847B714BF
:100FF000004013670710B8C7EF007077FC4093F705
:10100000070881CB7D1415451374F40FEF0030767B
:1010100075F4371700407C472244B240924493E76E
:1010200007107CC7154541016F007074011122CC77
:1010300026CA4AC84EC606CE52C4AA899D44371451
:1010400000407D597C44154593E707107CC4EF00B0
:101050001072B3D79940858BA1C73C4493E707082A
:101060003CC41545EF00B0703C441545FD1493E7B2
:1010700007103CC4EF00B06FE39624FD7C44F240BF
:10108000D24493E707107CC43C444249B24993E7F9
:1010900007083CC46244224A154505616F00306D63
:1010A0007C4493E707087CC46DBF371700403C477A
:1010B000A5451305001893E707183CC76F00102CCF
:1010C000411106C622C426C22E84AA84593D1305A6
:1010D000A00BA93FDD3D2685913FC53D13558400FA
:1010E000B137E5351375F40F9137C5352244B24059
:1010F000924441014DB5B7170040E8532181134593
:10110000150005898280371700407C478566D58F9A
:101110007CC78280B747004003C707001377F70EEC
:101120002380E7002382A7003747004083476700FA
:1011300093F70704E5DF0345470082803717004037
:101140003C478566D58F3CC78280B747004003C7C0
:101150000700B74600401377F70E2380E700239679
:10116000B70005472383E7001D4789E9374700405B
:101170008347770093F7F70FE5FF828003C6770078
:10118000E365C7FE03460500FD15C2052388C600BA
:101190000505C181D9BF411122C406C626C2130468
:1011A00000201305F00F7D14B5374204AA84418056
:1011B0000545EF00D05B01CC93978401E187E3C242
:1011C00007FEB24022442685924441018280930466
:1011D000F00FC5BF41114AC02A891305F00F06C69A
:1011E00022C426C23284AE843537313F13E504046D
:1011F000153713558401393F135504011375F50F45
:10120000113F135584001375F50F29371375F40F2B
:1012100011371305500999C01305F00FE53D4A85B4
:101220009D3F2A84213F1305F00FED352285B24002
:1012300022449244024941018280411122C4416406
:1012400006C626C27D141305F00F7D14E135420455
:10125000AA8441800545EF00905119C89307F00F0B
:10126000E393F4FE0145B24022449244410182805E
:101270000545D5BF011126CAAA8413E5050406CE8B
:1012800022CC36C632847935135584016135135525
:1012900004011375F50FBD3D135584001375F50F4B
:1012A000953D1375F40FBD35B2463685A5356244BC
:1012B000F2402685D2440561F9BD1841011122CCC6
:1012C0004AC806CE26CA91472A8432896303F700AA
:1012D000A6051305F00F2EC6353D3535B2458146BE
:1012E00022852E86E1457937AA84893D81CC130574
:1012F000F00F0D358D44F240624426854249D244B8
:101300000561828009351305F00F29351305F00FAB
:1013100011351305F00FFD3B1305E00FE53B930579
:1013200000204A851D351305F00FED331305F00F2E
:101330004164CD337D1415491305F00FE13B7D89E0
:10134000631D250141647D141305F00FE1331DC1B8
:10135000F5331305F00F7D3B79BF7D14420405453D
:101360004180EF00D04069F8D13B1305F00F5D33A9
:10137000894451B77D14420405454180EF00303F58
:1013800061F46D3B1305F00F71338544ADB779718E
:1013900022D42A841305F00F26D24ECE56CA06D682
:1013A0004AD052CC5AC8AE84B289B68AA5331C4002
:1013B00011476384E700A60481CBB133814656868A
:1013C000DD452285453D9D3B3D3B81462686E545E5
:1013D00022854D352AC69D33324505C11305F00FD0
:1013E000153B11442285B250225492540259F249BD
:1013F000624AD24A424B4561828031331305F00F75
:10140000113B1305F00F416A313381447D1A154BAE
:10141000639054031305D00FF5392285393D854774
:101420002A84631BF506193B1305F00FE5315DBFF8
:101430001305C00FC531930500204E8539331305C0
:10144000F00FC9391305F00F93890920E131528952
:101450001305F00FC1317D89631D65012285F13BC4
:1014600085476317F502D9391305F00F6531094433
:1014700095BF7D194209054513590901EF00302F29
:10148000E31809FC65391305F00F69310D4499BF64
:101490008504C204C180ADBF55311305F00F9D39DD
:1014A000014489B7B7470040094711E14157A3817B
:1014B000E70029456F00502E371700403C477971EF
:1014C000856606D6D58F22D426D24AD04ECE52CCAF
:1014D00056CA3CC79D452A841D65EF00206A814598
:1014E0002165EF00A069EF00F00B0545EF00B00E9D
:1014F000814513050010EF00A07901456537A94427
:10150000EFF0DFC3FD141305F00F93F4F40FEFF0C9
:101510007FC0EDF8930400200549014681452285EE
:10152000553963082501FD14C204C180FDF49D44B2
:1015300069A8EFF05FBD930670081306A01AA145D5
:1015400022850D3B9547AA846311F50C23202401C5
:10155000EFF0DFBE1305F00FEFF0DFBB0149930999
:10156000E01F130AE03F1545EF00102363E9290748
:10157000EFF07FB981460146930570032285DD397E
:101580002AC6EFF0BFBB324585476311F518EFF06F
:101590009FB781460146930590022285E1392AC60C
:1015A000EFF0DFB9324529EDEFF05FB90545DD3DDC
:1015B0001305F00FEFF01FB613060020C14522857A
:1015C000EFF05FC19144630F0512B250225426859B
:1015D00002599254F249624AD24A45618280E366D6
:1015E0002AFFEFF05FB281460146854522855931D9
:1015F0002AC6EFF0BFB4324501E5232004006DB7E1
:101600000509420913590901B9BF631D250F1305C7
:10161000F00FEFF03FB01305F00FEFF0BFAF130581
:10162000F00FEFF03FAFAA891305F00FEFF09FAE78
:10163000AA84EFF0BFB01305F00FEFF0BFAD6393D6
:10164000290D9307A00A639FF40A9309002001491A
:10165000054AA54AFD19C209154593D90901EF00AC
:10166000B0136387090AEFF01FAA8146014693056C
:1016700070032285EFF01FC0AA84EFF03FAC639E99
:101680004403EFF05FA881463706004093059002BF
:101690002285EFF03FBE2AC6EFF05FAA32455DF922
:1016A000EFF07FA6814601469305A0032285EFF067
:1016B0007FBC11C9EFF09FA809BF63ED2A0505099A
:1016C0001379F90F41BF1305F00FEFF0BFA4AA84FF
:1016D0001305F00FEFF01FA41305F00FEFF09FA319
:1016E0001305F00FEFF01FA3EFF05FA51305F00F48
:1016F000EFF05FA293F40404914791E089471CC086
:1017000005454D33EFF09FA38144C1B5994475BDA4
:10171000894465BD8D4455BD011122CC416426CA62
:101720004AC84EC606CE2E89B2847D149309E00FB6
:101730001305F00FEFF01F9E63123503014493175A
:101740000401C1831305F00F63EF9702EFF09F9C34
:101750001305F00FEFF01F9C014539A87D144204DA
:1017600005454180EF00B00061F4EFF03F9D1305A7
:10177000F00FEFF03F9A0545F2406244D2444249EF
:10178000B24905618280EFF0FF98B307890023809A
:10179000A70005046DB7011122CC2A841305F00FB0
:1017A00006CE2EC6EFF01F97EFF0FF95B2454146EB
:1017B00022859D37EFF09F981305F00FEFF09F956E
:1017C000F240624401450561828041114AC00146F0
:1017D0002E89A54526C206C622C4AA84EFF09F9F83
:1017E00009E92244B240CA85268502499244410152
:1017F0005DB72A84EFF09F941305F00FEFF09F91EF
:101800002285B24022449244024941018280011162
:101810008A8506CE5D3F3DED8347010093060004B7
:101820000345810093F7070C034791006399D700A4
:10183000220505073A952A05F24005618280834713
:1018400061008346710019818D8BA207B6978A07C4
:101850003E958347A1000607198B9D8389073E9714
:10186000854786077D17C2071377F70FC18375FB7E
:10187000034751000505B307F5023D8B054501E718
:101880003305F50255BF06057D1742054207418124
:101890004183F5B701454DB741114AC001462E8934
:1018A000A94526C206C622C4AA84EFF0BF9209E960
:1018B0002244B240CA852685024992444101E1BDD5
:1018C0002A84EFF0BF871305F00FEFF0BF84228565
:1018D000B2402244924402494101828018410111E0
:1018E00022CC26CA06CE91472A84B2846303F7002D
:1018F000A6051305F00F2EC6EFF0DF81EFF0BF80D5
:10190000B245814622852E86C545EFF0BF962AC690
:10191000EFF0DF82324501CD1305F00FEFF08FFFBE
:1019200009442285F2406244D24405618280EFF08E
:101930008FFD13060020A6852285F93B2A84EFF04F
:10194000EFFF1305F00F09C4EFF0CFFC0544D1BF42
:10195000EFF04FFCF9B71841797126D24ECE52CC38
:1019600006D622D44AD09147AA84B289368A630324
:10197000F700A6051305F00F2EC6EFF0AFF9EFF054
:101980008FF8B245814626852E86C945EFF09F8E99
:101990002A890144EFF08FFA630509021305F00F5D
:1019A000EFF04FF70549B25022544A85925402593C
:1019B000F249624A45618280050442049389092004
:1019C0004180630F8A00EFF00FF413060020CE85EC
:1019D0002685EFF07FD42AC6EFF04FF6324569DD59
:1019E000EFF06FF281460146B1452685EFF09F8802
:1019F000EFF0CFF41305F00FEFF0CFF16DB7411119
:101A0000114506C622C4EF50E00D2A841305C0021A
:101A1000EF50400D371700001307874B58C1371799
:101A200000001307670F18C53727000013078789C1
:101A300058C5371700001307A77C18C937170000CF
:101A40001307471D58C9372700001307E78018CD33
:101A5000372700001307C78D58CD3717000013072D
:101A6000A72B18D1372700001307679500C158D15D
:101A7000B2402244371700001307E73818D5410158
:101A80008280B7470F00938707243355F5029307E9
:101A9000C0031375F50F630CF50863EDA700BD4790
:101AA0006303F504F9476303F506B7170040238085
:101AB00007008280930700066308F50893078007F4
:101AC0006301F50A93070005E311F5FEB71700401F
:101AD000130770052380E700130780FA2380E700CF
:101AE0001307600481A0B717004013077005238017
:101AF000E700130780FA2380E700130720042384FC
:101B0000E700130700F82385E70045B7B717004043
:101B1000130770052380E700130780FA2380E7008E
:101B2000130700042384E700130720F8E9BFB71761
:101B30000040130770052380E700130780FA238015
:101B4000E70013078004F9BFB717004013077005BB
:101B50002380E700130780FA2380E700130750046F
:101B6000D1B7B7170040130770052380E7001307AC
:101B700080FA2380E700130740046DB7A94763E6A6
:101B8000B702A167938787258A05BE959C41828706
:101B9000B7170040F84B1345F5FF698FF8CBB84BEA
:101BA000698FB8CBB843798DA8C38280B71700403E
:101BB000F44F1347F5FFF98EF4CFF44BF98EF4CBC5
:101BC000B44B558DA8CB31A8B7170040F44F13473D
:101BD000F5FFF98EF4CFF44B558DE8CBB44BF98E6D
:101BE000B4CBB443758FB8C38280B7170040F84FA9
:101BF000498FF8CFF44B1347F5FFC9B7B71700402B
:101C0000F84F498FF8CFF84B498FF8CBB84B1345B5
:101C1000F5FF79B7B7170040F84F498FF8CFB44FA9
:101C20001347F5FFF98EB4CFF44B21A8B717004046
:101C3000F84F498FF8CFB84F498FB8CFF44B1347BF
:101C4000F5FF758FF8CBB843598DB9BFB717004072
:101C5000F44F1347F5FFF98EF4CFB44FE1B7B71740
:101C60000040F44F1347F5FFF98EF4CFB44FC98EFF
:101C70005DBFB7170040B44F1347F5FF758FB8CF5E
:101C8000F84B498FC1B7B7170040B84F498FC5BF50
:101C9000A94763E6B702A167938747288A05BE95DF
:101CA0009C418287B7170040F85B1345F5FF698FA9
:101CB000F8DBB85B698FB8DBB853798DA8D3828025
:101CC000B7170040F45F1347F5FFF98EF4DFF45BBC
:101CD000F98EF4DBB45B558DA8DB31A8B717004053
:101CE000F45F1347F5FFF98EF4DFF45B558DE8DB05
:101CF000B45BF98EB4DBB453758FB8D38280B71759
:101D00000040F85F498FF8DFF45B1347F5FFC9B770
:101D1000B7170040F85F498FF8DFF85B498FF8DBB1
:101D2000B85B1345F5FF79B7B7170040F85F498FE7
:101D3000F8DFB45F1347F5FFF98EB4DFF45B21A839
:101D4000B7170040F85F498FF8DFB85F498FB8DFF9
:101D5000F45B1347F5FF758FF8DBB853598DB9BFA6
:101D6000B7170040F45F1347F5FFF98EF4DFB45F57
:101D7000E1B7B7170040F45F1347F5FFF98EF4DFC2
:101D8000B45FC98E5DBFB7170040B45F1347F5FF5E
:101D9000758FB8DFF85B498FC1B7B7170040B85FE0
:101DA000498FC5BFB74700401147A381E7000947E6
:101DB0002380E700130700062380E70003C717000E
:101DC00013670701A380E70003C717001377E70F26
:101DD000A380E700828085476309F50201C989472E
:101DE0006302F5048D476306F5048280B74700401F
:101DF00003C707001377770F2380E70003C7170097
:101E000013670702A380E7008280B747004003C73B
:101E100007001377770F2380E70003C717001377B6
:101E2000F70DCDB7B747004003C70700136787001A
:101E3000E1B7B747004003C7070013678700E1BF5A
:101E4000B74700401147A381E74009472380E74097
:101E5000130700062380E74003C7174013670701F5
:101E6000A380E74003C717401377E70FA380E7403D
:101E7000828085476309F50201C989476302F50439
:101E80008D476306F5048280B747004003C70740CB
:101E90001377770F2380E74003C7174013670702C4
:101EA000A380E7408280B747004003C7074013770D
:101EB000770F2380E74003C717401377F70DCDB79F
:101EC000B747004003C7074013678700E1B7B7472C
:101ED000004003C7074013678700E1BFB7470040D2
:101EE00003C707401377F70E2380E7402382A740FC
:101EF000374700408347674093F70704E5DF828058
:101F0000B747004003C70740B74600401377F70EB6
:101F10002380E7402396B74005472383E7401D47CA
:101F200089E9374700408347774093F7F70FE5FF8C
:101F3000828003C67740E365C7FE03460500FD15B2
:101F4000C2052388C6400505C181D9BFB7177A00ED
:101F5000938707203355F5021375F50F2381A1826E
:101F60009307803E3305F5022390A1828280B7F764
:101F700000E023A0070003C721823305A70213074F
:101F80001010C8C723A8070098C3D84B098B75DF6A
:101F9000D84B759BD8CB828003D70182B7F700E07E
:101FA00023A007003305A70213071010C8C723A8F2
:101FB000070098C3D84B098B75DFD84B759BD8CBDE
:101FC000828012059A054D8DB72700400947136599
:101FD000C5002380E7401375F50F2380A74082805A
:101FE00085476316F50021651305052B828025655D
:101FF0001305058A82800CC58280411122C43714E2
:102000000040784426C2B704200006C6458F78C435
:102010001305400651373C44B24013052003C58FD9
:102020003CC422449244410185BF3717004091C50A
:102030003C4793E707203CC782807C4793E7072013
:102040007CC78280411122C4371400407C5426C2D0
:1020500085649384048006C6C58F7CD47C5437077E
:102060000001D98F7CD49D3D3C54B240DD8C24D4FA
:1020700022449244410182801305900299E11305A4
:102080008002C9B7411122C4371400407C4406C6FF
:10209000954593E707207CC413050020EFF01FAEA1
:1020A0003C44370720009545D98F3CC437052000B4
:1020B000EFF0DFAC3C54370700019545D98F3CD495
:1020C00037050001EFF0DFBC3C54056713070780BC
:1020D000D98F11653CD49D4513050580EFF05FBB9A
:1020E000EFF01FD6B747004009470545A381E740F9
:1020F000EFF03FD82244B2401545410171BD411176
:1021000022C4371400407C5426C285649384048022
:1021100006C6C58F7CD43C54370700012E85D98F65
:102120003CD4EFF0BFDB3C54B240DD8C24D42244DD
:10213000924441018280411122C4371400407C54F2
:1021400026C285649384048006C6C58F7CD43C5423
:10215000370700012E85D98F3CD4B285EFF05FDAC6
:102160003C54B240DD8C24D422449244410182800C
:10217000011122CC371400407C5426CA8564938414
:10218000048006CE2317B100C58F7CD43C5437079A
:1021900000011305E100D98F3CD48945EFF05FD6EB
:1021A0003C54F240DD8C24D46244D24405618280E8
:1021B000411122C4371400407C5426C285649384A4
:1021C000048006C6C58F7CD43C5437070001060640
:1021D000D98F2E85931506013CD4C181EFF05FD2D3
:1021E0003C54B240DD8C24D422449244410182808C
:1021F000B7170040F857856601119386068022CCF8
:1022000026CA4EC652C4558F06CE4AC8F8D7B8570C
:1022100013D49500B7060001131A0401558F135A01
:102220000A01B8D7AA8993F4F51F63000A0201498D
:102230001315A900930500404E95EFF07FCC0509DA
:1022400093170901C183E3E547FF91C81315040102
:1022500041812A05939514004E95EFF07FCAB71679
:102260000040BC560567F240624413070780D98FCF
:10227000BCD6D2444249B249224A0561828041110A
:10228000B74700402317A10003C707408605C205D2
:102290001377F70E2380E740C1812396B7400547A7
:1022A0002383E7409D46814737470040374600403B
:1022B00091E9374700408347774093F7F70FE5FFF1
:1022C0004101828003457740E3E4A6FE08083E957D
:1022D0000345E5FFFD15C2052308A64093C7170077
:1022E000C181F9B7B7170040F85785660111938689
:1022F00006804AC84EC6558F06CE22CC26CAF8D7CD
:10230000B857B70600012E89558FB8D79307F01F2D
:102310009379F61F63F7C70013549600814463E472
:102320008402CE854A85A13FB7160040BC5605679A
:10233000F240624413070780D98FBCD6D244424989
:10234000B249056182808504930500204A85C20454
:102350003D37C180E9B7011122CC2A842E8506CEF3
:1023600032C6EFF03FCE324622856244F24093758A
:10237000F60F05616FF0BFD8411122C42A842E8563
:1023800006C626C2B284EFF0FFCB93D58401228526
:10239000EFF0FFD693D50401228593F5F50FEFF00A
:1023A0001FD693D58400228593F5F50FEFF03FD526
:1023B00022852244B24093F5F40F924441016FF01C
:1023C0001FD4011122CC328413960501558E93053A
:1023D000A00226CA06CEAA843AC6793F324713160F
:1023E00004016244F2402685D244598E9305B0021E
:1023F000056159B7411122C406C68D892308B5006D
:1024000089472A846382F5068D47638AF5068547E6
:102410006381F5049307000F2311F500930700145F
:102420002312F500130680042285930560032537E7
:10243000035744008356240022852244B2407D176E
:10244000FD164207C2064183C18201468145410112
:102450008DBF930700142311F5009307000F23127B
:10246000F50013068002C9B79307000F2311F5008A
:10247000930700142312F5001306800875B793071D
:1024800000142311F5009307000F2312F500130623
:10249000800E59BF011106CE22CC26CA4AC8AA8492
:1024A0004EC6EFF03FBE371700407C47268593E7C6
:1024B00007207CC7EFF07FB4EF10D03B2A840345A0
:1024C000040019E9624483C50401F2404249B2495B
:1024D0002685D244056139BF0349140093092400BD
:1024E000EFF05FB61374F90762092286CE85268560
:1024F00013598941EFF03FC44E94E35209FC130590
:102500006009EFF07FA965BF03574500835625009A
:1025100041117D17FD164207C2064183C182014663
:10252000814506C622C42A84EFF0BFE91305C00224
:10253000EFF05FB103562400835744008355C40075
:1025400022853306F602EFF0FFD9B240231A0400C9
:10255000231904002244410182804111AE86328752
:1025600006C622C42A84EFF0DFE51305C002EFF0AF
:102570007FAD8355E40022852244B24041016FF0D3
:102580003FBF411122C42E873284930600142E8649
:10259000814506C6EFF0FFE21305C002EFF09FAAE7
:1025A00022852244B2409305001441016FF05FC4BC
:1025B00079714ECE56CABA89B68A7D17FD16329702
:1025C000AE964207C2064183C18206D622D426D2E5
:1025D0005AC85EC62A8BBE844AD052CCEFF07FDE4A
:1025E0001305C002EFF01FA6939B19000144631E60
:1025F0005403B250225492540259F249624AD24AC8
:10260000424BB24B4561828083550A0005095A85C9
:102610004209EFF0FFB513590901090AE31639FF22
:10262000050442044180DE94D9B7268A0149FDB7EA
:10263000797106D622D426D24AD04ECE3289AE89BE
:10264000B6843EC63A84EFF0DFD71305C002EFF040
:102650007F9FB38534413304244105048505B38548
:102660008502B2472254B25092540259F2493E8533
:1026700045616FF0FFB779711358170026D24ECE1F
:1026800056CAB689BA8ABE841307F6FF93D71600D6
:102690009386F5FF4297BE96330606419D8D42070D
:1026A000C2064206C2054183C1824182C18106D66B
:1026B00022D452CC5EC62A8A4AD05AC8EFF07FD0C4
:1026C0001305C002EFF01F98939B1A000144631E8C
:1026D0003403B250225492540259F249624AD24A07
:1026E000424BB24B4561828083550B0005095285F0
:1026F0004209EFF0FFA713590901090BE31659FF2F
:10270000050442044180DE94D9B7268B0149FDB708
:102710005D71A2C4130476004204CAC052DC56DACA
:102720005AD862D466D26AD06ECE86C6A6C24EDEB3
:102730005ED6AA8AAE8C328CB68D3A8841803289B8
:10274000014A138D8700A14833078941420741831D
:102750006372070BB30B4D01E684D28985A803C7CA
:1027600006003357C740058B05C303D7EA00239003
:10277000E5000506C105E31416FF85060905638813
:102780007601AA850146E1BF03D7CA00CDB793867B
:102790007400C206A6852287C1824A8656853EC637
:1027A00042C4EFF01FC21305C002EFF0BF89130649
:1027B0000004938581CE5685EFF09F9FA104B24718
:1027C0002248C204A109C180A10BA1483387494115
:1027D000420741836377B701138581CEB386370102
:1027E0004DB72109210442094204135909014180CE
:1027F0004E8A99BFB640264496440649F259625A19
:10280000D25A425BB25B225C925C025DF24D616126
:102810008280135817003306064113D81600B3857B
:1028200005414206C2054182C1816FF07FEE3971D8
:1028300026DA938406FE144522DC4AD84ED6E204FA
:1028400006DE52D456D25AD05ECE62CC66CA094752
:102850002A84E18483572500138981CE6393E60E91
:1028600063E6F50041064206418281459204938B5E
:1028700081CE014BA14C330C9B00DE8A014A0545F9
:1028800032C62EC4EFF0CFF5629583470500A2450E
:102890003246B3D74741858BD9CF8357E400239085
:1028A000FA00050AC10AE31C9AFD050B890BE31423
:1028B0004BFD138B8400A14BC104CA8A014A054514
:1028C00032C62EC4EFF0CFF15A9583470500A245DA
:1028D0003246B3D74741858BB5C38357E400239075
:1028E000FA08050AC10AE31C7AFD050B0909E396FB
:1028F00064FD1307F600938675004207C206418304
:10290000C1822285EFF0FFAB1305C002EFF08FF319
:102910001306000822856254F250D2544259225ABA
:10292000925A025BF24B624CD24C938581CEB259E3
:1029300021616FF0FF878357C40095B78357C400A8
:1029400079BF63E6F500210642064182814599463A
:10295000B384D402014B214C994CB38B6401CA8AD5
:10296000014A014532C62EC4EFF08FE75E958347DA
:102970000500A2453246B3D74741858B9DCF83578B
:10298000E4002390FA00050AB10AE31C8AFD050B56
:102990000909E3149BFD130776009386550042074F
:1029A000C2064183C1822285EFF0BFA11305C00298
:1029B000EFF04FE913060003B1BF8357C400D1B74E
:1029C0001845011122CC26CA4AC84EC652C456C266
:1029D0005AC006CE89472A8B2E84B28AB6842949EA
:1029E000A149154A631BF70A1D4A8387040099EB26
:1029F000F2406244D2444249B249224A924A024BCE
:102A00000561828083574B00C51763C7FA005A855A
:102A1000EFF09FAF814A014483860400639826014A
:102A2000C10AC20A93DA0A01014439A8639A36033B
:102A3000637E8A0061144204418093060002568638
:102A4000A2855A85EFF0BFDE850445B703542B00FD
:102A5000C11AC20A61144204418093DA0A01F1BF2B
:102A6000A28556865A85EFF09FDC83572B00210400
:102A700042044180E517E349F4FC5DB763903607F3
:102A800063748A04691442044180930600025686E6
:102A9000A2855A85EFF0BFD9850483870400A9DB9E
:102AA00083574B00E51763C7FA005A85EFF0DFA59F
:102AB000814A014483860400E39226FDA10AC20AEA
:102AC00093DA0A010144C9BF03542B00E11AC20A78
:102AD00069144204418093DA0A0145BFA2855686F3
:102AE0005A85EFF0DFD483572B001904420441804C
:102AF000E917E343F4FAD9B75D714AD82A89130577
:102B0000000806DE22DC26DA4ED652D4BAC0BEC297
:102B1000C2C4C6C6AE89328A36C6EF30B07CB24671
:102B200090002A84B68532CEEF40802AAA84A286FD
:102B30005286CE854A85EFF0BFE82285EF30707B64
:102B4000F250625426854259D254B259225A6161D8
:102B500082801D714AD82A8913050008BAC8BECAE6
:102B600006DEB6C6C2CCC6CE22DC26DA4ED652D49B
:102B700032C62E8AEF301077B245F000AA8432CEEA
:102B8000EF400025AA892685EF40A0200327890071
:102B900089470354290099456313F700A145B305FC
:102BA000B502A68652864A85B305B4408581C20522
:102BB000C181EFF0FFE02685EF30B073F250625430
:102BC0004E85D2544259B259225A25618280035708
:102BD00045008356250001117D17FD164207C206E8
:102BE0004183C18201464AC82E89814506CE22CC46
:102BF00026CA2A844EC652C456C25AC0EFF06FFC91
:102C00001305C002EFF00FC483574400035624009D
:102C10008355C40022853306F6029304C003EFF007
:102C20006FEC9307C00363E32701CA841844C2040E
:102C30008947C1800149930A80026305F70803555B
:102C400044000D81058D6355A908B3059900B309AA
:102C50005903131B390013068002420B135B0B014F
:102C6000014AB3855503138569012295A299D905B7
:102C7000A295EF30506B850983865901C1EA050999
:102C800042091359090165BFB3059900B3095903F6
:102C9000131B490013068002420B135B0B01014A10
:102CA000B3855503138569012295A299D905A2958B
:102CB000EF3070678509838659019DEE0509420949
:102CC00013590901035544001181058DE34EA9FAFA
:102CD000130680023305C502F2404249B249224A36
:102CE000924A024B81453386C402590522956244BB
:102CF000D24405616FD0CFBCD285210A5A86228585
:102D0000420AEFF0DFB2135A0A016DB7D285190AF1
:102D10005A862285420AEFF09FB1135A0A01A1BFD9
:102D20005D71A6C2AA843305C7404EDE56DA5ED670
:102D300036C686C6A2C4CAC052DC5AD862D466D28D
:102D40006AD06ECEAE8AB28BEF303039B246AA89E5
:102D50006395DA0A93050000EF30003A4E89634626
:102D6000A00037090080334939014E85CA85EF300C
:102D7000C007AA8913040000370A008093050000E9
:102D80002285EF306037A2876344A000B3478A00F2
:102D9000CA853E85EF30A03E6351A002B64026446E
:102DA00096440649F259625AD25A425BB25B225C9F
:102DB000925C025DF24D616182805E85EF30F031A0
:102DC000A285EF20F04BEF30F02B13170501418364
:102DD000D6863A86D6852685EFF0AFDE1305C0028B
:102DE000EFF04FA683D5E4002685EFF06FB822857B
:102DF000CE85EF20F0482A8451B733855641EF3015
:102E0000D02D2A84AA854E85EF20307E2A8A93050C
:102E100000002285EF30402EA2896346A000B7094A
:102E20000080B3C98900CE852285EF20107CAA8D51
:102E3000930500005285EF30202C528B6346A00092
:102E4000370B0080334B4B01930500005285EF3068
:102E5000A02A635DA002B777000083ACC75F130CA4
:102E600000006284370D0080930500002285EF305A
:102E7000A028A2856344A000B3458D004E85EF30A5
:102E8000A027E34D05F013090000A5A0B7970000A7
:102E900083AC87ACE9B75685EF303024A285EF20AC
:102EA000303EEF30301E93160501C1825E8536C676
:102EB000EF30B022E285EF20B03CCA85EF20503CD5
:102EC000EF30501CB246131705014183B6853A8690
:102ED0002685EFF00FCF1305C002EFF0AF9683D534
:102EE000E4002685EFF0CFA84A85E685EF2050392B
:102EF0002A89930500004A85EF300020CA85634483
:102F0000A000B3452D015A85EF30001FE35505F8A9
:102F1000EE852285EF20D0362A84D2856285EF2087
:102F200030362A8C91B75D71A2C4A6C2CAC04EDEEB
:102F300052DC56DA5AD886C65ED662D466D26AD0D9
:102F40006ECE2A8A2E8BB289B68A3A89BE84428492
:102F50006382081C6377C700328863798600228801
:102F600031A06361C82A3A88E36B87FE131D08010C
:102F7000135D0D0163F72901CE8763793401A287C0
:102F800031A063EF8924CA87E36B24FF939D070177
:102F900093DD0D016399A925630BB9254A8481ACA2
:102FA0004E84B1A463EC6425D68963E79A24C209F0
:102FB00093D9090163775B015A8963F96401268912
:102FC00031A063679B185689E3EB54FF42091359FC
:102FD000090163123B1963842A19D68449A2DA8451
:102FE000BDAA92473385FD40EF30300FAA8C4A8549
:102FF000EF30101B2A8CDA856685EF20105FE285A2
:10300000EF201028EF301008B245931A05016685AD
:10301000EF20B05DE285EF20B026EF30B006131C44
:10302000050193DA0A01135C0C0163755C01568794
:10303000E28A3A8CE2866E876E86D6855285EFF0FC
:103040004FB81305C002EFE0FFFF814C330C5C4129
:1030500063599C0193871D00939D070193DD0D012A
:1030600035AA8355EA00850C5285C20CEFF04F90CB
:1030700093DC0C01F1BF92473305F440EF30F005CB
:10308000DA85EF209056AA894A85EF301005AA8587
:103090004E85EF20F01EEF30E07EA247931D050124
:1030A00093DD0D013305F440EF303003E685EF206A
:1030B000D053AA892685EF305002AA854E85EF208D
:1030C000301CEF30207C9319050193D9090163F579
:1030D000B901EE87CE8DBE89CE8622872286EE8507
:1030E0005285EFF00FAE1305C002EFE0BFF5014CC3
:1030F000B389B94163D68901050442044180C1A066
:103100008355EA00050C5285420CEFF06F86135C84
:103110000C01CDB7EFF0DFC02287A6864A86D685A0
:103120005285EFF0FFBF22862644B6400649D25AA8
:10313000B25B225C925C025DF24D4E87DA86F259F8
:10314000425BA68552859644625A61616FF05FBD0D
:10315000568963063B01E3142BE9E3903AE9330512
:10316000BD416EC2EF3060772A8B33852941EF3045
:10317000C076AA855A85EF205047B30BB4412A8BFD
:103180005E8522C4EF3060752A8C33852441EF3090
:10319000C074AA856285EF2050452AC6E3D3BBE5FB
:1031A000330D8D406A85EF3040732A8C338599400A
:1031B000EF30A072AA856285EF203043AA8CE35CD1
:1031C0008DEAB640264496440649F259625AD25ACC
:1031D000425BB25B225C925C025DF24D6161828077
:1031E000CA8D6386A901E39DB9DBE319A9DBE3FB83
:1031F0006ADBDA89E37D9BDAA68955BBD689E36D64
:103200005BDBD1B33A8DE369E6D6B5BB011122CCC5
:1032100026CA4AC84EC652C406CE56C22A842E8A30
:103220003289B689BA84C9C7EFF0AF991305C002D5
:10323000EFE05FE133854941EF30206A93050000FC
:10324000835AE4002A8AEF20306B6346A000B70758
:10325000008033CA4701B779000083A5C95F528552
:10326000EF2010022A8A33852441EF30006793054E
:103270000000AA84EF2050686345A000B7070080D3
:10328000BD8C83A5C95F2685EF20807FD285EF2086
:10329000D077EF30205F2A8622856244F240D24404
:1032A0004249B249224AD685924A05616FF08F831E
:1032B0003287EFF0FFA62687CE864A86CE85228506
:1032C000EFF01FA62687D2862686CE852285EFF0D0
:1032D0003FA522856244F240B249924A4A87D2868B
:1032E00042492686D285D244224A05616FF05FA307
:1032F0009357D5001357A5001377F70393F7077C6F
:10330000D98F0D817D899607C98F13958700A18379
:103310005D8D420541818280411122C42A842E851F
:1033200006C6EFF0FFFC2316A400B2402244410180
:103330008280411122C42A842E8506C6EFF05FFBED
:103340002317A400B24022444101828039714ED635
:1033500056D2BA89B68A7D17FD163297AE964207C5
:10336000C2064183C18206DE3EC622DC26DA5AD07E
:10337000C2845ECE62CC2A8B4AD852D4EFF06F84DE
:103380001305C002EFE01FCCB247139C19000144A3
:10339000A20713D58700EFF0BFF5AA8B6311540580
:1033A000F2506254D2544259B259225A925A025B94
:1033B000F24B624C2161828083550A006385BB0019
:1033C0005A85EFE0FFDA0509420913590901090A94
:1033D000E31439FF050442044180E294C1B7268A10
:1033E0000149FDB739719358170026DA4ED656D2E7
:1033F000B689BA8AC2841307F6FF13D816009386DB
:10340000F5FF4697C29633061641B385054142073C
:10341000C2064206C2054183C1824182C18106DEE5
:103420003EC622DC52D45ECE62CC2A8A4AD85AD01A
:10343000EFE03FF91305C002EFE0DFC0B247139C95
:103440001A000144A20713D58700EFF07FEAAA8B88
:1034500063113405F2506254D2544259B259225A7F
:10346000925A025BF24B624C2161828083550B00C1
:103470006385BB005285EFE0BFCF050942091359B0
:103480000901090BE31459FF050442044180E29449
:10349000C1B7268B0149FDB71845011122CC26CAB8
:1034A0004AC84EC606CE52C456C25AC089472A845C
:1034B000AE842949A1496303F702194A930A80029D
:1034C000154B038704008357440163120710035709
:1034D000240199468D833357D70229A8130A800205
:1034E0009D4A03870400835744011DE703572401C5
:1034F00091830D8393068002B387D7023E943A945A
:10350000230B0400F2406244D2444249B249224AA9
:10351000924A024B0561828003574400930617FFCD
:1035200063CBD700411723190400231AE400854513
:103530002285EFF0CFE983860400035644016399A6
:103540002601410623190400231AC400850451BF33
:1035500083552401639A360363FFBA00E1152319EA
:10356000B4000356440183552401930600022285CA
:10357000EFF0EFABE1BF835724004116231AC400DC
:10358000E1172319F400F1BF2285EFF04FAA83560B
:103590004401835724010386040013D746003307F0
:1035A000470393D53700A107C207C18322972E97FF
:1035B000230BC700035724002319F4006517E3C742
:1035C000E7F8C10623190400231AD40041B70357B2
:1035D0004400930697FF63CBD700611723190400BB
:1035E000231AE40085452285EFF06FDE8386040010
:1035F0000356440163992601210623190400231A66
:10360000C40085047DBD83552401639A3603637F1E
:10361000BB00E9152319B400035644018355240166
:10362000930600022285EFF08FA0E1BF83572400AC
:103630006116231AC400E9172319F400F1BF22858B
:10364000EFF0EF9E83572401835644010386040064
:10365000B3D5470313D736009907C207C183330791
:10366000570322972E97230BC700035724002319D3
:10367000F4006917E3C7E7F8A10623190400231A29
:10368000D40041B75D714AD02A891305000806D6D7
:1036900022D426D236DEBAC0BEC2C2C4C6C62EC628
:1036A00032DCEF302044B24530182A8432CEEF307D
:1036B0002072AA84A2854A85EFF01FDE2285EF30B2
:1036C0004043B2502254268502599254616182804F
:1036D00041111305804C06C622C4EF30A040930769
:1036E000000F2311F500930700142312F5008547FE
:1036F0001CC5C1775CC58D472A842308F500231AB1
:103700000500231905001306004B81455905EFC03C
:103710003F9B13050007EF30E03C372700001307FD
:10372000474958C1372700001307A7FF18C5372797
:1037300000001307A70258C53727000013078707A3
:1037400018C9373700001307873158C937370000C9
:103750001307273318CD37270000130767FF58CD0D
:10376000372700001307875018D137370000130799
:10377000E7BC58D1372700001307473F18D5372734
:1037800000001307A75558D53727000013072758FF
:1037900018D937370000130707D258D93737000038
:1037A000130767F218DD373700001307C72058DD0D
:1037B000372700001307075B38C1372700001307BE
:1037C000076378C1372700001307676738C53737A5
:1037D00000001307C73478C5373700001307473E8A
:1037E00038C9372700001307077178C93737000039
:1037F0001307278138CD373700001307E78278CDCC
:10380000373700001307079C38D1373700001307FC
:1038100087AF78D137370000130727B500C138D5F7
:10382000B2402244373700001307476878D541017A
:1038300082802300B50082804CC182800CC58280CA
:10384000411122C4371400403C4426C2856493844D
:10385000048006C6C58F3CC43C44054593E7074039
:103860003CC4EFE0CFF07C44B2400545DD8C64C43D
:103870002244924441016FE08FEF411122C437147A
:1038800000407C4426C285649384048006C6C58FAC
:103890007CC43C44054593E707403CC4EFE02FED72
:1038A0003C44B2400545DD8C24C42244924441018D
:1038B0006FE0EFEBB7170040F847411122C426C272
:1038C0004AC006C613670740F8C7B8470564130423
:1038D0000480418FB8C7B84705459304F00F1367BC
:1038E0000740B8C7EFE0AFE8371900408327490425
:1038F000E18F81CBFD14054593F4F40FEFE02FE742
:10390000F5F4371700407C472244B2409244024904
:1039100093E707407CC7054541016FE04FE5011182
:103920004AC8056922CC26CA4EC652C406CE56C223
:103930002A8A9D443714004013090980FD597C44AC
:10394000054593E707407CC4EFE06FE2B3579A4028
:10395000858BB9C73C44B3E727013CC40545EFE07C
:103960000FE13C440545FD1493E707403CC4EFE0FC
:103970000FE0E39634FD7C4405671307078093E767
:1039800007407CC43C44F240D244D98F3CC46244DA
:103990004249B249224A924A054505616FE02FDD4E
:1039A0007C44B3E727017CC455BF371700403C4730
:1039B00005654111130505C006C6C98F3CC7A5455D
:1039C000EFE0CF9BB240294541016FE0EFDC0111F0
:1039D00006CE2EC42AC6EFF0BFE6324503450500E9
:1039E000EFF0FFF3EFF01FED0145EFF05FF3EFF0C5
:1039F0007FECA2452E85EFF09FF2EFF0BFEBF24097
:103A000005616FF09FE7411126C2AE84930510084F
:103A100022C406C62A84EFF09FFB22852244B240CE
:103A200093F5F407924441016FF07FFA4111930539
:103A3000D00806C622C42A84EFF07FF92285D1453A
:103A4000EFF0FFF822852244B2409305F00A4101CD
:103A50006FF0FFF741119305D00806C622C42A84EF
:103A6000EFF0FFF62285C145EFF07FF62285224474
:103A7000B2409305E00A41016FF07FF5011106CED7
:103A80002EC42AC6EFF0DFDB324503450500EFF018
:103A90001FE9EFF03FE213050004EFF05FE8EFF0FD
:103AA0007FE1A2452E85EFF09FE7EFF0BFE0F24007
:103AB00005616FF09FDC4111130606FB22C42E84C2
:103AC0009375F60F06C626C20904AA84EFF03FF0EC
:103AD00093554440BD89268593E50501EFF03FEFFE
:103AE0009375F4002244B2402685924441016FF060
:103AF0001FEE011126CA4EC606CE22CC4AC8034785
:103B000005009307A007AA8491496313F700A14910
:103B10000144228681452685EFF0FFF9130900084C
:103B2000814526857D19EFF07FF5E31B09FE05042D
:103B30001374F40FE39F89FCF2406244D24442497B
:103B4000B24905618280411106C622C42A84EFF081
:103B5000DFE59305E00A2285EFF07FE781452285C6
:103B6000EFF0FFE6C1452285EFF07FE69305000404
:103B70002285EFF0DFE59305000B2285EFF03FE5AE
:103B8000930510082285EFF09FE49305F00F22853E
:103B9000EFF0FFE39305100A2285EFF05FE3930552
:103BA000600A2285EFF0BFE29305800A2285EFF0DC
:103BB0001FE2034704009307A0079305F003630384
:103BC000F700FD452285EFF09FE09305800C2285EC
:103BD000EFF0FFDF9305300D2285EFF05FDF8145C9
:103BE0002285EFF0DFDE9305500D2285EFF03FDEFA
:103BF000930500082285EFF09FDD9305800D228557
:103C0000EFF0FFDC95452285EFF07FDC9305900D0A
:103C10002285EFF0DFDB9305100F2285EFF03FDB0D
:103C20009305A00D2285EFF09FDA03470400930768
:103C3000A007C9456303F70089452285EFF03FD906
:103C40009305B00D2285EFF09FD8930500032285E0
:103C5000EFF0FFD79305D0082285EFF05FD7D1456D
:103C60002285EFF0DFD69305F00A2285EFF03FD6EC
:103C7000930510022285EFF09FD581452285EFF054
:103C80001FD59305F0072285EFF07FD4930520021E
:103C90002285EFF0DFD381452285EFF05FD3034724
:103CA00004009307A0079D456303F7008D45228517
:103CB000EFF0FFD122852244B24041016FF07FE353
:103CC00001114EC652C456C206CE22CC26CA4AC8DC
:103CD000034705009307A007AA89AE8A114A631318
:103CE000F700214A930400080144228681454E854D
:103CF000138904F8EFF03FDCB3872A0183C507007E
:103D00004E850509EFF09FD7E39824FF050413744F
:103D1000F40F93840408E31A8AFCF2406244D2440C
:103D20004249B249224A924A05618280011122CC5D
:103D3000138406FE144526CA4AC84EC662049397E9
:103D4000850106CE52C456C25AC009472A89AE8997
:103D5000B2846184E187639BE60A63D7070093041A
:103D6000260093F4F40F814912042686CE854A85F5
:103D7000EFF07FD4130A8400A28A054B8327490001
:103D8000054563916707EFE0AFA5569583450500AC
:103D90004A85850AEFF09FCEE3924AFF138614000E
:103DA0001376F60FCE854A85EFF0FFD041048544A7
:103DB00083274900054563919704EFE06FA2529570
:103DC000834505004A85050AEFF05FCBE31244FF07
:103DD000F2406244D2444249B249224A924A024BDA
:103DE00005618280EFE0CF9F56958345050093C51E
:103DF000F5FF93F5F50F69BFEFE08F9E5295834570
:103E0000050093C5F5FF93F5F50F6DBF63D7070068
:103E10009304160093F4F40F81492686CE854A85D3
:103E2000EFF07FC999463304D402854993046400B6
:103E3000832749000145639E3701EFE06F9A229581
:103E4000834505004A850504EFF05FC3E31294FE45
:103E500041B7EFE0EF9822958345050093C5F5FF44
:103E600093F5F50FC5B71845011122CC26CA4AC8EB
:103E70004EC652C456C206CE8947AA89AE84328441
:103E80003689294A930A8007630EF70283060900E0
:103E90008DCE6395460505041374F40F814489A8FB
:103EA0006397460109041374F40F814419A8A68589
:103EB000A10422864E8593F4F40FEFF03FE7E3E38D
:103EC0009AFE050983060900E1FEF2406244D244ED
:103ED0004249B249224A924A05618280A6859904E4
:103EE00022864E8593F4F40FEFF05FE4E3E59AFA4F
:103EF000050969BF5D714AD82A891305000806DEE5
:103F000022DC26DA4ED652D4BAC0BEC2C2C4C6C65D
:103F1000AE89328A36C6EF20F03CB24690002A8441
:103F2000B68532CEEF20D06AAA84A2865286CE858C
:103F30004A85EFF05FF32285EF20B03BF2506254E8
:103F400026854259D254B259225A616182801D712C
:103F500026DAAA8413050008BAC8BECA06DEB6C6A9
:103F6000C2CCC6CE22DC4AD84ED632C6AE89EF20AD
:103F70007037B245F0002A8432CEEF2070652A896E
:103F80002285EF2010619844894799456313F70013
:103F9000A1453305B50293050008A2864E86898D9A
:103FA0008581268593F5F50FEFF0FFEB2285EF2055
:103FB0005034F25062544A85D2544259B259256164
:103FC0008280411126C2AA84314506C622C4EF2050
:103FD000703185472A84230095005CC11CC51305F8
:103FE0008003EF203030374700001307278358C184
:103FF000374700001307878318C5374700001307AA
:10400000C78358C537470000130727AF18C937477C
:104010000000130767B458C937470000130767A0AB
:1040200018CD374700001307C7A258CD3747000007
:10403000130747A518D137470000130707CC58D1FD
:10404000374700001307C7D218D5374700001307BA
:1040500067E658D537470000130747EF00C118D966
:10406000B2402244374700001307E7F458D992447E
:104070004101828025651305C5AC828003C591800E
:1040800013351500828083A74181411106C69847E8
:1040900088430297894709C583C7918093B7170062
:1040A000B2403E854101828083A7418141112E8724
:1040B00006C6B28505468843639CC600DC4F3A8637
:1040C00082978D4711E18147B2403E854101828050
:1040D000DC53C206C1823A868297E5B783A7418145
:1040E00041112E8706C6B28505468843639CC600EB
:1040F0009C533A8682978D4711E18147B2403E85B5
:10410000410182809C57C206C1823A868297E5B7F8
:10411000014582808347350003472500A207D98FD8
:1041200003471500A20703450500D98FA2075D8D3F
:1041300082805849F915791763F9E5008357A5007E
:104140000855B387B7023E958280014582801C41A5
:104150009DC33E87930500021306A003050783064F
:10416000F7FF13F8F60F63F20503E399C6FE938693
:1041700027006304D700FD5711A8038607009306A4
:104180000003FD576314D60018C181473E85828025
:1041900001ED814725459CC1828025458147F2403C
:1041A00062449CC1056182801C41011122CC06CE73
:1041B0002A84E5D703C707006DD38356450003D78C
:1041C0006700E39CE6FC03C517002EC6EFF01FEB6B
:1041D0000589B24579F11C40D9B783C7B50103C73A
:1041E000A501A207D98F0D47631AE50003C7550142
:1041F00083C645012207558F4207D98F3E858280AD
:1042000093170601C183A183A38DF500238DC500FB
:10421000034705008D476318F7004182238AC500D4
:104220002182A38AC5008280411122C426C24AC0CD
:1042300006C61309050350552A8403451500854613
:10424000CA85EFF0BFE985441DE550541C50184C59
:10425000A3010400B307F640814463FEE7008346F0
:10426000240089476399F6000345140085463A9671
:10427000CA85EFF0BFE6B240224426850249924447
:10428000410182805C556383B704411122C426C278
:1042900006C6834735002A84AE8499EF034514008F
:1042A0008546268693050403EFF01FE0814719C178
:1042B0008547FD5444D429A0EFF01FF7AA8779DD84
:1042C000B240224492443E854101828081473E852E
:1042D0008280411122C406C626C2FD575CD5A301C7
:1042E00005002A84EFF01FFA914771E98344F42214
:1042F0008347E4221307B00EA204DD8C8347040336
:104300006388E700E10793F7F70F05476362F70A51
:10431000AD67938757A5639DF400B79500002146CC
:104320009385C5BB13052408EF20807D814741C9D3
:104330008347C4030347B403A207D98FC207C187C9
:10434000130700206396E7060347D40335C393079A
:10435000F7FFF98FB1EF8347F4030347E403A207A4
:10436000D98FB9C7834704040547FD176362F70473
:104370008347240403471404A207D98F95CB8347AE
:10438000440403473404A207D98F1307F007636975
:10439000F70013050405EFF0FFD7C167636AF50066
:1043A000034774048347640422075D8F814701EB50
:1043B0002D67130757A589476383E4008D47B240F3
:1043C000224492443E854101828001114EC652C46E
:1043D00006CE22CC26CA4AC856C25AC08549094AC6
:1043E00063F0B90A5C492A89094A63FBF5088347E7
:1043F000050009473284AE846386E70A0D47638A65
:10440000E70C639F370793D915001C51AE9993D5DC
:104410009900BE95EFF01FE72A8A3DE1930A090350
:10442000138B1900858893F9F91FD6999377F40FA8
:1044300089CC83C709008566C11613F7F700931767
:104440004400F58FD98F93F7F70F2380F900854744
:10445000A301F9008327090293559B004A85BE9565
:10446000EFF05FE22A8A09ED137BFB1FDA9A85C41D
:1044700011801374F40F23808A008547A301F9008B
:10448000F24062445285D2444249B249224A924A99
:10449000024B0561828083C70A0021803D88C19B51
:1044A0005D8CD1BF1C51A181BE95EFF0BFDD2A8A82
:1044B00061F986049307090393F4E41FBE942380F3
:1044C0008400420441802180A3808400A30139013B
:1044D00045BF1C519D81BE95EFF0DFDA2A8A4DF170
:1044E0008A049307090393F4C41FBE942685EFF052
:1044F0007FC2B70700F012047D8D1180498C93575D
:10450000840023808400A380F40093570401618019
:104510002381F400A381840055BF854763FDB70C58
:104520005849011122CC06CE26CA4AC84EC62A8452
:1045300063F8E502034705008946AE846308D706A1
:104540008D466308D708631DF70013D915001C5169
:104550002E9993559900BE95EFF0DFD211C9FD5702
:10456000F2406244D2444249B2493E8505618280AC
:104570001C509309190093D599001379F91F2299BA
:10458000BE95228503490903EFF0DFCF69F993F95E
:10459000F91F4E94834704038588A207B3E72701D8
:1045A00099C0918375BFD207D1835DBF1C51A18192
:1045B000BE95EFF03FCD45F586041304040393F454
:1045C000E41F26948347140003470400A207D98FF1
:1045D00041BF1C519D81BE95EFF0DFCA49F1139593
:1045E0002400130404031375C51F2295EFF09FB236
:1045F000931745007DB785473E858280011126CA05
:104600004EC652C406CE22CC4AC856C25AC02A8AC6
:10461000AE89044191E903A9C40063050900DC489F
:10462000636EF90205491DA82685EFF01FEF854747
:104630002A8463EEA70005442285F2406244D244F6
:104640004249B249224A924A024B05618280FD5793
:10465000630BF50ADC484E89E360F5FE9C4899E35C
:104660000144D9BF631B3903DC4813041900636399
:10467000F400094403250A00A285EFF01FEA05476C
:10468000E30BE5FAFD576300F5081DCDDC446376C6
:10469000F700D84863F3E7003E894A84854A7D5B8A
:1046A000DC4805046365F400E3FC2AFB09440325A8
:1046B0000A00A285EFF07FE609C9E30E55F763040F
:1046C0006505E31F24FD69BF69D87D56A28526854F
:1046D000EFF0BFCF15E5639F0900D8489C48C0C4E0
:1046E00079176374F70283C7440093E717002382A6
:1046F000F40099B72286CE852685EFF01FCD71DDB7
:104700008547E31AF5F27D5405BFFD179CC8E1BF4C
:10471000011122CC26CA06CE4AC84EC652C456C281
:104720008547AE84004163FDB7065C4863FAF50631
:10473000AA89B28501EE054AFD5A03A50900A6859E
:10474000EFF0BFDD2A890DE1014531A07D562285BC
:10475000EFF0BFC76DD1F2406244D2444249B24942
:10476000224A924A05618280630C4503630C55031B
:104770000146A6852285EFF05FC571FD58481C48AB
:104780009306E7FF63FAD70085071CC883474400F8
:1047900093E717002302F400CA84E360E9FA6DB7D7
:1047A000094555BF054545BF39714AD806DE22DCAB
:1047B00026DA4ED652D456D25AD023A005003289DA
:1047C0002EC6EFF0DF98AD47634E05029317250024
:1047D00013874182BA978043AA84B14705C4B24582
:1047E0001379E90F80C18347040085CB034514008A
:1047F000EFF0DF88937715008DE3630509001189D9
:1048000011C1A947F2506254D2544259B259225AA6
:10481000925A025B3E852161828013F5F40F2300DA
:104820000400A300A400EFF01F86137715008D4746
:1048300071FB63040900118969F581452285EFF058
:104840005FA989476314F50404081309641F130A58
:104850006423A6894A85EFF0FF8B23A0A9004109B4
:104860009109E3192AFF1389040185498C400D45FC
:1048700091C52285EFF0FFA563F2A9029104E31729
:1048800099FE114785476319E500ADBF114785477C
:10489000E30AE5F663F4A700B547ADB78347C40361
:1048A0000347B403A207D98FC207C18713070020AB
:1048B000E394E7FE8349740483476404A209B3E9DF
:1048C000F9006397090013054405EFF0BF84AA8936
:1048D00083440404232C340105479387F4FF230108
:1048E000940093F7F70F032AC402E367F7FA03492A
:1048F000D40393170901C1832315F400D1DF930773
:10490000F9FFB3F72701C9FB83472404834A140442
:10491000A207B3E75701939A070193DA0A41139B61
:104920000A01135B0B01231464019377FB00ADF7BD
:10493000034544048347340422055D8D09E51305CE
:104940000405EFF02FFD8347F4030347E403A207B8
:10495000D98FB9D3B386340313574B003E9736979C
:10496000E36CE5F2198DB3542503E36725F33706AD
:1049700000105516E36296F241665516637B961059
:104980000D4952978904D29718D444C8232E440164
:104990001CD00D476310E90E8347B4050347A405F7
:1049A000A207D98FB3E7FA00C207C187E39607EEE3
:1049B0001305C405EFF00FF648D08A049384F41F62
:1049C000A580E3EB99ECFD571CC85CC4930700F885
:1049D0002302F4008D476310F90883471406034748
:1049E0000406A207D98FC207C18705476395E7066A
:1049F00093051A002285EFF0FF8831ED8347F422FA
:104A00000347E42223020400A207D98FC2076D776F
:104A1000C187130757A56390E70413050403EFF05C
:104A20006FEFB7576141938727256316F50213058A
:104A30004421EFF02FEEB777416193872727631C5E
:104A4000F50013058421EFF0EFEC08C81305C4212D
:104A5000EFF04FEC48C4138781828357070023008F
:104A600024018507C207C1832310F7002313F40034
:104A7000814749BBE3020BE2B6975CD089476314D8
:104A8000F900860425BF3387E40285880583BA943C
:104A900035B705695519333999000509DDB5011197
:104AA0004AC80329850022CC26CA06CE4EC652C467
:104AB00023280500AA840041631109040347040068
:104AC000894763F4E7005C5085EB8357840091EBE2
:104AD0000945F2406244D2444249B249224A056142
:104AE00082805C509CCC9C4C23AA2401F5D31304F7
:104AF0000403C0CC0145F1BF3E898357A400FD5992
:104B0000054A91EF8840CA85EFF03FA12A89630EDC
:104B10003501E37FAAFA5C48E366F5FE55BFCA8516
:104B20002285EFF00FE188CC7DBF05455DB7797137
:104B300022D406D626D24AD04ECE834735002A84C8
:104B40008DEB2285EFF0EFDE1309040348D4AA8928
:104B50001306002081454A85EFB08FD681448357E4
:104B6000A40063E6F4028357A400858FB337F000F6
:104B700039A02EC6EFF04FEB8547B24579D1B25040
:104B8000225492540259F2493E8545618280034580
:104B90001400854633869900CA85EFF02FD461F55D
:104BA000850475BF01114EC68329050122CC26CA92
:104BB00006CE4AC852C456C25AC093890902B707E2
:104BC00020002A84044163E4F900232C05001C4CD6
:104BD00011459DC313FAF91FAE8A631C0A084C489D
:104BE00085071CCC85E503D7840093D7590063E281
:104BF000E708232C04001145F2406244D2444249A4
:104C0000B249224A924A024B0561828083D7A400AE
:104C100013D79900FD17F98FA9EF2685EFF0FF8FC5
:104C2000054B2A896364AB000945F9B7FD57631446
:104C3000F5000545D1B7DC486366F502E38B0AFA57
:104C40004C482285EFF09F9B2A891D45E30609FA0F
:104C5000E30C69FDFD57E30EF9FCCA852685EFF0EC
:104C60001FED61F9232A2401CA852685EFF06FCC58
:104C700008CC93840403D2942328340144CC014506
:104C8000A5BF39715ECE832B050022DC4AD806DE33
:104C900026DA4ED652D456D25AD062CC66CA6AC8E8
:104CA0006EC62A842E899306F0021307C005830777
:104CB0000900638CD70E638AE70E232404000347A0
:104CC0000900FD4763F5E70E256B930A0402379C44
:104CD0000000130BCBB3938C0B032D4693050002FE
:104CE0005685EFB0EFBD014A8149214D930D000279
:104CF0001307F0029306C0051306E0022D4885094C
:104D0000B30739018387F7FF93F4F70F63F29D022E
:104D10006384E4006394D40C9306F0021307C00587
:104D2000B3073901838707006388D70A6386E70AD8
:104D30004E9963080A14034704029307500E631543
:104D4000F70095472300F4021307000291476377A9
:104D50009700830609006353D7008147A305F40237
:104D6000228583290400EFF09FD3AA8469E10C4CCB
:104D70004E85EFF02FD1AA845DE9484C83470500AA
:104D8000D5C78347B50093F7F7032303F4008347A0
:104D9000B500A18B91E72D46D685EF10705641C91D
:104DA00081452285EFF01FE0C9B7050909B79307D0
:104DB00000F8A305F40222856254F250D2544259FD
:104DC000B259225A925A025BF24B624CD24C424D7B
:104DD000B24D21616FF0BFCC850999B76385C40AD4
:104DE0006371AA0B63D7070093F4F407DA9483C4C2
:104DF0000400A68513058CBCEF10107859E1938749
:104E0000F4F993F7F70FE5481307F0029306C0058E
:104E10001306E0022D4863E5F800811493F4F40FC3
:104E2000B3874A0123809700050AD1BD9144834787
:104E3000B40295C411476394E400918BA9C3F25066
:104E4000625426854259D254B259225A925A025B70
:104E5000F24B624CD24C424DB24D21618280918B1B
:104E6000F9FF83476400C18B99CB0C4803C50B0045
:104E700093F5F51FE695EFF04FB608C4B9BD95441C
:104E80007DBF99446DBFE30E0DFF214A2D4D85BDB9
:104E9000011122CC26CA4AC806CE4EC6AA840329CE
:104EA0000500EFF0DFBF2A8435E19309500E8C4CEA
:104EB0004A85EFF02FBD2A8431E9DC4C83C7070017
:104EC000639F37038C4C4A85EFF0CFBB2A8405E102
:104ED000C84C130600028145EFB08F9EC84C2D468A
:104EE00093850402EF1030448547A301F900228521
:104EF000F2406244D2444249B24905618280F9D30A
:104F000085452685EFF01FCA2A8455D19147E310C5
:104F1000F4FE1D44E9BF411122C406C626C28347E0
:104F200035002A84E1E7034704008D476317F70A39
:104F30000347440085476312F70A13070403130667
:104F4000002081453A8583441400EFB06F979307A2
:104F500050052307F4229307A0FAA307F42293072E
:104F600020052308F402A308F4029307100623097E
:104F7000F402A30BF4201C4893061004A309D402E6
:104F8000230BD42093D68700230CF420A30CD42029
:104F900093D60701E18313062007A30DF4205C4498
:104FA000230AC420A30AC420504C230DD42093D636
:104FB0008700230EF420A30ED420050693D6070104
:104FC000E183230FD420AA85A30FF42050D4854673
:104FD0002685EFF0AF90230204000345140001463C
:104FE0008145EFF0EF923335A00021A0EFF0CFA381
:104FF0001DD9B240224492444101828079712AC66F
:10500000680806D62EC432C22ECEEFF04F94634D00
:105010000502138741820A052A9718439387418224
:10502000124619C323000700324719C323000700A3
:10503000AA9798C3014511C601466C002800EFF0FD
:10504000AFF6B250456182802D45E5BF5971D2CC93
:1050500086D6A2D4A6D2CAD0CECED6CADAC8DEC6EA
:105060002EC6254A29C91379F603B2842A844A86B2
:105070000C086800EFF04FF32A8A1DE9C247B245D9
:1050800048083ECAEFF0FFBF11E58307F10363D381
:105090000700194593F7C401638607180DC99147A6
:1050A0006318F5004808EFF0BFDE136989001DC9D9
:1050B000232004002A8AB650265452859654065955
:1050C000F649664AD64A464BB64B656182808347AD
:1050D000A101C58B6393071693F7440063900718EB
:1050E000A188D1C4C257130730059306A004A38832
:1050F000E7002388D70023870700A3870700C2574C
:10510000C249A38CE700238CD700238B0700A38B15
:105110000700C25A03C50900D685EFF00F8C93072C
:105120000002A385FA00C255AA8401464E85EFF01D
:105130002F8DC2570547238E0700A38E0700238FAC
:105140000700A38F0700C247A381E7008DC0014677
:10515000A685480883A9C702EFF08FDB31F94245E5
:10516000CE85FD14EFF00F92C247C4C731F193779B
:10517000890099C313690904C24AC254130B8402FB
:1051800083A7CA0244D0A6851CD003C50A00EFF04D
:10519000CF8408C4AA891385C401EFE0BFF783D781
:1051A0006A0048C423082401AA842320540123123E
:1051B000F400A3080400232E0400232A040013068D
:1051C000002081455A8513790902EFA07FEFE3049F
:1051D00009EEE38204EE03D9AA0044C8854A2609F1
:1051E000FD5B636E99040145232C3401E31205EC49
:1051F00093F7F41FE38107EC4249CE854A85EFE03F
:105200005FF32A860945E30506EAA580269650CC79
:10521000034519008546DA85EFE01FE9E30D05E84F
:10522000054579B5E31605E88347A10113F70701A2
:1052300005EB89888DDC858B9DDB1D4595BD084080
:10524000CE85B3842441EFF04FADAA8963F6AA005E
:10525000E31975F9054549BF094579B7214589BD68
:105260001145B9B51D71A2CCD2C4D6C25EDE86CEC0
:10527000A6CACAC8CEC6DAC062DC66DA6AD86ED6FA
:10528000AE8A23A006006C082A8432C6B68BEFE0F3
:105290003FF02A8A25E5034A140163110A06834771
:1052A0000401858B638307160329C4005C483246DA
:1052B0003309F940637326013289130C0020130B64
:1052C0008402930CF01F7D5D630A09025C4813F7AA
:1052D000F71F631D07107247835DA70013D7970060
:1052E000FD1DB3FDED0063980D048DEB084485476B
:1052F00063EBA7028947A308F400094AF640664415
:105300005285D6444649B649264A964A064BF25B30
:10531000625CD25C425DB25D256182800C4C0840CB
:10532000EFF0AF9FE9B76317A5018547A308F40025
:10533000054AE9B708CCF2470C4C3E853EC6EFE083
:105340005FDF4DD9B389AD00B24763F22C0703D7B5
:10535000A70093549900B3869D006374D700B304EB
:10536000B74103C51700A6864E86D685EFE0DFD38A
:105370004DFD8307040163DF0700484CB309354145
:1053800063FA9900A60913060020DA8533853A01ED
:10539000EF106079A60483A70B0033099940A69A01
:1053A000A69723A0FB005C48BE9444C831BF504C74
:1053B000630C360303070401635F070003C517008E
:1053C0008546DA85EFE09FD12DF18347040193F7FD
:1053D000F7072308F400F24785464E8603C51700F9
:1053E000DA85EFE07FCC31F1232E34014C48CA84BA
:1053F00093F5F51FB307BC4063F32701BE842686EF
:10540000DA955685EF10207279B71D4AC5BD1D711A
:10541000A2CCCAC8CEC6D2C4DAC086CEA6CAD6C26C
:105420005EDE62DC66DA6AD86ED62E8A23A00600BB
:105430006C082A843289368BEFE09FD5AA8929E54A
:10544000834914016392090483470401898B6382B1
:10545000071A5C48338727016374F70013C9F7FF05
:10546000930B0020930A8402130CF01FFD5CEDA83F
:105470000C4C2285EFF08F98631E051083470401C2
:1054800093E707042308F400F64066444E85D644AB
:105490004649B649264A964A064BF25B625CD25CA4
:1054A000425DB25D25618280631795018547A3083F
:1054B000F4008549D1BF1C4408CC91E308C483079C
:1054C000040163D10702F247504C854603C517001B
:1054D000D685EFE0BFC079F98347040193F7F7075A
:1054E0002308F400F2470C4C3E853EC6EFE07FC433
:1054F0004DC5338DAD00B24763762C0B03D7A700A3
:1055000093549900B3869D006374D700B304B741E8
:1055100003C51700A6866A86D285EFE03FBC59F521
:105520004C4C338DA54163709D02260D130600205F
:10553000B305AA015685EF10005F8347040193F776
:10554000F7072308F400A60483270B0033099940CA
:10555000269AA6972320FB005C48BE945C4444C86E
:1055600063F39700A6875CC4E30A09F05C4813F76D
:10557000F71F39EB7247835DA70013D79700FD1D16
:10558000B3FDED00E39D0DF2E39407EE0844814581
:10559000E30105EE8547E319F5F08947A308F40018
:1055A0008949DDB5584C630FA70154445848637BC3
:1055B000D70003C5170085466A86D685EFE0DFAEC3
:1055C000E31605EE232EA4014848CA841375F51F7F
:1055D000B387AB4063F32701BE842686D2855695F8
:1055E000EF1060548347040193E707F82308F400A1
:1055F000A1BF9D4951BD797122D44ECE06D626D287
:105600004AD0A9472A84AE896394F500B545E537A9
:105610005C4063CF070293841700A297032984009C
:10562000238637019307B00363D09702084026868C
:1056300074009305C400EFF09FDDB247B384974038
:10564000B3349000B3049040050944C023242401DE
:10565000B250225492540259F2494561828050411D
:10566000635906007D5582807D55F2406244056194
:105670008280011122CC9305C5002A840841740060
:1056800006CEEFF0DFD86DF15840B247E31EF7FCCD
:105690000844E1BF01116C0026CA06CE22CCAA84C0
:1056A000EFE01FAFAA8745E903C70401937607041B
:1056B000DDC26207618763530702B247D04C85465B
:1056C00003C5170093858402EFE05FA1854741E59C
:1056D00083C7040193F7F7072388F4008C50324501
:1056E000EFE05FBAAA8725E9C0508347B400A285DE
:1056F00093E70702A305F40090448840EFE05FB011
:10570000DC443245230B040013D78700230EF4003A
:10571000A30EE40013D70701E183A30FF40093075E
:10572000A004230CF40093073005230FE400A30C1E
:10573000F400A30B0400854723090400A309040017
:10574000A301F500EFF02FFD03C70401AA8713772B
:10575000F7FB2388E400F2406244D2443E850561B1
:105760008280011122CC06CE2A84EFF0BFF201E93B
:105770006C002285EFE0DFA119E123200400F24054
:10578000624405618280557122D526D32A8432DD98
:10579000AE8413068004814528184ECF52CD56CBD7
:1057A0005AC95EC7BEC306D74AD162C566C36AC1BD
:1057B00036DFBAC1C2C5C6C7A3070100EFA05F901C
:1057C0003C1922DA3EC8930A5002130B00039309D6
:1057D000A002930B0002294A8385040063810528F7
:1057E000138414006399550F83851400639F650526
:1057F0008385240013843400130D000381476396CE
:105800003509424783050400050403290700930670
:10581000470036C81307E002FD546393E50883058B
:1058200004006387350705048144A546138705FDF9
:105830001377F70F63E6E606B38444030504AE94DA
:10584000938404FD8305F4FFD5B79307D0026387E3
:10585000F50013842400130D00024DB713843400A7
:1058600083852400130D0002894751BF3309490382
:1058700005042E998305F4FF130909FD138705FD1F
:105880001377F70FE3F4E6FE71B70149A546FDB7BC
:10589000424783051400090404439306470036C8B1
:1058A0001307C0066397E5008305040093E74700EC
:1058B00005046386051A13074006638AE50E6340F4
:1058C000B702130720066380E50E6340B70613078F
:1058D0008005638CE50C4818EFF0FFD169A8130729
:1058E0003007638BE504634AB7021307F006A1464D
:1058F000E393E5FE424713F547001306470055C9F9
:1059000032C8130640061843639BC50A6359070A49
:105910003307E04093E717005DA013075007638843
:10592000E50813078007C146E1B7C2471387470060
:105930003AC88385070045B74247832C0700930682
:10594000470036C863940C00930CF100014C338778
:105950008C010307070015E363C5040063F38401AA
:10596000268C898B95C3E69483850C0099C163903E
:10597000940363632C03A28485B5050CC9BFEA8533
:105980004818EFF05FC7050CE36B2CFFE9BF481820
:10599000850CEFF05FC6C9BF930500024818EFF011
:1059A0009FC5050CF9B78946B1B7C146A1B7A9464D
:1059B00091B71305400632C81843E389A5F41305CF
:1059C00080071D466394A500130670024C081375EA
:1059D000F60F2E8C0146254EB378D7023353D702EB
:1059E0003308150163661E01139888011358884116
:1059F0001308080323800501930416006367D7008A
:105A000085051A87639374057D4613F7170009CB44
:105A10001801BA941307D002238AE4F893042600ED
:105A2000898BA68C95CBFD14B3079C00838507005A
:105A30004818EFF05FBCE5F8E3FF2CF39305000294
:105A40004818EFF05FBB850CC5BF268671B7EA85A5
:105A50004818EFF05FBA850CE3EB2CFFE9B7481864
:105A6000EFF0FFBFBA502A549A540A59FA496A4AC9
:105A7000DA4A4A4BBA4B2A4C9A4C0A4D69618280E9
:105A80004111370780007D1713D8750126C2935442
:105A900075013373A70093F4F40FB376B7004AC0CF
:105AA0001378F80F1359F50106C622C4FD819A87B1
:105AB00026854A86131E3300939E3600B388044120
:105AC000630AB90E6350100D630408149307F00FB6
:105AD000638BF414B7070004B3EEFE00ED4763C117
